{
    "_format": "hh-sol-artifact-1",
    "contractName": "Group",
    "sourceName": "contracts/Group.sol",
    "abi": [
        {
            "inputs": [],
            "name": "InvalidInitialization",
            "type": "error"
        },
        {
            "inputs": [],
            "name": "NotInitializing",
            "type": "error"
        },
        {
            "inputs": [
                {
                    "internalType": "address",
                    "name": "owner",
                    "type": "address"
                }
            ],
            "name": "OwnableInvalidOwner",
            "type": "error"
        },
        {
            "inputs": [
                {
                    "internalType": "address",
                    "name": "account",
                    "type": "address"
                }
            ],
            "name": "OwnableUnauthorizedAccount",
            "type": "error"
        },
        {
            "anonymous": false,
            "inputs": [
                {
                    "indexed": true,
                    "internalType": "address",
                    "name": "from",
                    "type": "address"
                },
                {
                    "indexed": true,
                    "internalType": "address",
                    "name": "to",
                    "type": "address"
                },
                {
                    "indexed": false,
                    "internalType": "uint256",
                    "name": "amount",
                    "type": "uint256"
                },
                {
                    "indexed": false,
                    "internalType": "address",
                    "name": "token",
                    "type": "address"
                }
            ],
            "name": "ERC20FundsSplit",
            "type": "event"
        },
        {
            "anonymous": false,
            "inputs": [
                {
                    "indexed": true,
                    "internalType": "address",
                    "name": "spender",
                    "type": "address"
                },
                {
                    "indexed": false,
                    "internalType": "uint256",
                    "name": "amount",
                    "type": "uint256"
                },
                {
                    "indexed": false,
                    "internalType": "string",
                    "name": "note",
                    "type": "string"
                }
            ],
            "name": "ExpenseAdded",
            "type": "event"
        },
        {
            "anonymous": false,
            "inputs": [
                {
                    "indexed": true,
                    "internalType": "address",
                    "name": "spender",
                    "type": "address"
                },
                {
                    "indexed": false,
                    "internalType": "uint256",
                    "name": "amount",
                    "type": "uint256"
                },
                {
                    "indexed": false,
                    "internalType": "string",
                    "name": "note",
                    "type": "string"
                }
            ],
            "name": "ExpenseRemoved",
            "type": "event"
        },
        {
            "anonymous": false,
            "inputs": [
                {
                    "indexed": true,
                    "internalType": "address",
                    "name": "from",
                    "type": "address"
                },
                {
                    "indexed": true,
                    "internalType": "address",
                    "name": "to",
                    "type": "address"
                },
                {
                    "indexed": false,
                    "internalType": "uint256",
                    "name": "amount",
                    "type": "uint256"
                }
            ],
            "name": "FundsSplit",
            "type": "event"
        },
        {
            "anonymous": false,
            "inputs": [
                {
                    "indexed": false,
                    "internalType": "uint64",
                    "name": "version",
                    "type": "uint64"
                }
            ],
            "name": "Initialized",
            "type": "event"
        },
        {
            "anonymous": false,
            "inputs": [
                {
                    "indexed": true,
                    "internalType": "address",
                    "name": "previousOwner",
                    "type": "address"
                },
                {
                    "indexed": true,
                    "internalType": "address",
                    "name": "newOwner",
                    "type": "address"
                }
            ],
            "name": "OwnershipTransferred",
            "type": "event"
        },
        {
            "inputs": [
                {
                    "internalType": "address",
                    "name": "spender",
                    "type": "address"
                },
                {
                    "internalType": "uint256",
                    "name": "amount",
                    "type": "uint256"
                },
                {
                    "internalType": "string",
                    "name": "note",
                    "type": "string"
                }
            ],
            "name": "addExpense",
            "outputs": [],
            "stateMutability": "nonpayable",
            "type": "function"
        },
        {
            "inputs": [
                {
                    "internalType": "address",
                    "name": "user",
                    "type": "address"
                }
            ],
            "name": "addUser",
            "outputs": [],
            "stateMutability": "nonpayable",
            "type": "function"
        },
        {
            "inputs": [],
            "name": "admin",
            "outputs": [
                {
                    "internalType": "address",
                    "name": "",
                    "type": "address"
                }
            ],
            "stateMutability": "view",
            "type": "function"
        },
        {
            "inputs": [
                {
                    "internalType": "address",
                    "name": "",
                    "type": "address"
                }
            ],
            "name": "balances",
            "outputs": [
                {
                    "internalType": "int256",
                    "name": "",
                    "type": "int256"
                }
            ],
            "stateMutability": "view",
            "type": "function"
        },
        {
            "inputs": [
                {
                    "internalType": "address",
                    "name": "",
                    "type": "address"
                },
                {
                    "internalType": "uint256",
                    "name": "",
                    "type": "uint256"
                }
            ],
            "name": "expenses",
            "outputs": [
                {
                    "internalType": "address",
                    "name": "spender",
                    "type": "address"
                },
                {
                    "internalType": "uint256",
                    "name": "amount",
                    "type": "uint256"
                },
                {
                    "internalType": "string",
                    "name": "note",
                    "type": "string"
                }
            ],
            "stateMutability": "view",
            "type": "function"
        },
        {
            "inputs": [],
            "name": "getExpenses",
            "outputs": [
                {
                    "components": [
                        {
                            "internalType": "address",
                            "name": "spender",
                            "type": "address"
                        },
                        {
                            "internalType": "uint256",
                            "name": "amount",
                            "type": "uint256"
                        },
                        {
                            "internalType": "string",
                            "name": "note",
                            "type": "string"
                        }
                    ],
                    "internalType": "struct Group.Expense[]",
                    "name": "",
                    "type": "tuple[]"
                }
            ],
            "stateMutability": "view",
            "type": "function"
        },
        {
            "inputs": [],
            "name": "getSummary",
            "outputs": [
                {
                    "internalType": "uint256",
                    "name": "",
                    "type": "uint256"
                }
            ],
            "stateMutability": "view",
            "type": "function"
        },
        {
            "inputs": [],
            "name": "getSummaryList",
            "outputs": [
                {
                    "internalType": "address[]",
                    "name": "",
                    "type": "address[]"
                },
                {
                    "internalType": "uint256[]",
                    "name": "",
                    "type": "uint256[]"
                }
            ],
            "stateMutability": "view",
            "type": "function"
        },
        {
            "inputs": [
                {
                    "internalType": "address",
                    "name": "_admin",
                    "type": "address"
                },
                {
                    "internalType": "address",
                    "name": "_tokenAddress",
                    "type": "address"
                }
            ],
            "name": "initialize",
            "outputs": [],
            "stateMutability": "nonpayable",
            "type": "function"
        },
        {
            "inputs": [],
            "name": "isFunded",
            "outputs": [
                {
                    "internalType": "bool",
                    "name": "",
                    "type": "bool"
                }
            ],
            "stateMutability": "view",
            "type": "function"
        },
        {
            "inputs": [
                {
                    "internalType": "address",
                    "name": "user",
                    "type": "address"
                }
            ],
            "name": "isMember",
            "outputs": [
                {
                    "internalType": "bool",
                    "name": "",
                    "type": "bool"
                }
            ],
            "stateMutability": "view",
            "type": "function"
        },
        {
            "inputs": [],
            "name": "members",
            "outputs": [
                {
                    "internalType": "address[]",
                    "name": "",
                    "type": "address[]"
                }
            ],
            "stateMutability": "view",
            "type": "function"
        },
        {
            "inputs": [],
            "name": "name",
            "outputs": [
                {
                    "internalType": "string",
                    "name": "",
                    "type": "string"
                }
            ],
            "stateMutability": "view",
            "type": "function"
        },
        {
            "inputs": [],
            "name": "owner",
            "outputs": [
                {
                    "internalType": "address",
                    "name": "",
                    "type": "address"
                }
            ],
            "stateMutability": "view",
            "type": "function"
        },
        {
            "inputs": [
                {
                    "internalType": "address",
                    "name": "spender",
                    "type": "address"
                },
                {
                    "internalType": "uint256",
                    "name": "index",
                    "type": "uint256"
                }
            ],
            "name": "removeExpense",
            "outputs": [],
            "stateMutability": "nonpayable",
            "type": "function"
        },
        {
            "inputs": [
                {
                    "internalType": "address",
                    "name": "user",
                    "type": "address"
                }
            ],
            "name": "removeUser",
            "outputs": [],
            "stateMutability": "nonpayable",
            "type": "function"
        },
        {
            "inputs": [],
            "name": "renounceOwnership",
            "outputs": [],
            "stateMutability": "nonpayable",
            "type": "function"
        },
        {
            "inputs": [
                {
                    "internalType": "address",
                    "name": "_admin",
                    "type": "address"
                }
            ],
            "name": "setAdmin",
            "outputs": [],
            "stateMutability": "nonpayable",
            "type": "function"
        },
        {
            "inputs": [
                {
                    "internalType": "string",
                    "name": "_name",
                    "type": "string"
                }
            ],
            "name": "setGroupName",
            "outputs": [],
            "stateMutability": "nonpayable",
            "type": "function"
        },
        {
            "inputs": [
                {
                    "internalType": "address",
                    "name": "user",
                    "type": "address"
                },
                {
                    "internalType": "string",
                    "name": "userName",
                    "type": "string"
                }
            ],
            "name": "setName",
            "outputs": [],
            "stateMutability": "nonpayable",
            "type": "function"
        },
        {
            "inputs": [],
            "name": "splitFunds",
            "outputs": [],
            "stateMutability": "nonpayable",
            "type": "function"
        },
        {
            "inputs": [],
            "name": "token",
            "outputs": [
                {
                    "internalType": "contract IERC20",
                    "name": "",
                    "type": "address"
                }
            ],
            "stateMutability": "view",
            "type": "function"
        },
        {
            "inputs": [
                {
                    "internalType": "address",
                    "name": "newOwner",
                    "type": "address"
                }
            ],
            "name": "transferOwnership",
            "outputs": [],
            "stateMutability": "nonpayable",
            "type": "function"
        },
        {
            "inputs": [
                {
                    "internalType": "address",
                    "name": "",
                    "type": "address"
                }
            ],
            "name": "userNames",
            "outputs": [
                {
                    "internalType": "string",
                    "name": "",
                    "type": "string"
                }
            ],
            "stateMutability": "view",
            "type": "function"
        }
    ],
    "bytecode": "0x60c06040526005608090815264047726f75760dc1b60a052600090620000269082620000e0565b503480156200003457600080fd5b50620001ac565b634e487b7160e01b600052604160045260246000fd5b600181811c908216806200006657607f821691505b6020821081036200008757634e487b7160e01b600052602260045260246000fd5b50919050565b601f821115620000db57600081815260208120601f850160051c81016020861015620000b65750805b601f850160051c820191505b81811015620000d757828155600101620000c2565b5050505b505050565b81516001600160401b03811115620000fc57620000fc6200003b565b62000114816200010d845462000051565b846200008d565b602080601f8311600181146200014c5760008415620001335750858301515b600019600386901b1c1916600185901b178555620000d7565b600085815260208120601f198616915b828110156200017d578886015182559484019460019091019084016200015c565b50858210156200019c5787850151600019600388901b60f8161c191681555b5050505050600190811b01905550565b61204b80620001bc6000396000f3fe608060405234801561001057600080fd5b50600436106101585760003560e01c806383a36a91116100c3578063bdd4d18d1161007c578063bdd4d18d146102d1578063dcec1974146102e6578063f2fde38b146102f9578063f851a4401461030c578063fc0c546a1461031f578063ff47c2de1461033257600080fd5b806383a36a911461024d5780638574af38146102625780638da5cb5b1461027557806395289a601461029557806398575188146102ab578063a230c524146102be57600080fd5b8063421b2d8b11610115578063421b2d8b146101e1578063485cc955146101f4578063704b6c0214610207578063715018a61461021a5780637c654303146102225780637f2816351461023a57600080fd5b806306fdde031461015d5780630ff12b531461017b5780631b814f021461019057806327e235e3146101985780633121db1c146101c65780634051ddac146101d9575b600080fd5b610165610354565b60405161017291906118f7565b60405180910390f35b61018e6101893660046119b4565b6103e2565b005b61018e610448565b6101b86101a6366004611a0d565b60036020526000908152604090205481565b604051908152602001610172565b61018e6101d4366004611a28565b6106b0565b6101b8610724565b61018e6101ef366004611a0d565b610810565b61018e610202366004611a76565b610888565b61018e610215366004611a0d565b6109c9565b61018e610a38565b61022a610a4c565b6040519015158152602001610172565b610165610248366004611a0d565b610ad0565b610255610ae9565b6040516101729190611aa9565b61018e610270366004611b31565b610d9e565b61027d610ec2565b6040516001600160a01b039091168152602001610172565b61029d610ef0565b604051610172929190611bcc565b61018e6102b9366004611a0d565b6110f6565b61022a6102cc366004611a0d565b611237565b6102d96112a0565b6040516101729190611c23565b61018e6102f4366004611c36565b611302565b61018e610307366004611a0d565b61164d565b60015461027d906001600160a01b031681565b60065461027d906001600160a01b031681565b610345610340366004611c36565b611688565b60405161017293929190611c60565b6000805461036190611c90565b80601f016020809104026020016040519081016040528092919081815260200182805461038d90611c90565b80156103da5780601f106103af576101008083540402835291602001916103da565b820191906000526020600020905b8154815290600101906020018083116103bd57829003601f168201915b505050505081565b6001546001600160a01b031633148061041357506103fe610ec2565b6001600160a01b0316336001600160a01b0316145b6104385760405162461bcd60e51b815260040161042f90611cc4565b60405180910390fd5b60006104448282611d5d565b5050565b610450610a4c565b6104ac5760405162461bcd60e51b815260206004820152602760248201527f436f6e747261637420646f6573206e6f7420686176652073756666696369656e604482015266742066756e647360c81b606482015260840161042f565b60005b6005548110156106ad576000805b60046000600585815481106104d4576104d4611e1d565b60009182526020808320909101546001600160a01b0316835282019290925260400190205481101561057e57600460006005858154811061051757610517611e1d565b60009182526020808320909101546001600160a01b03168352820192909252604001902080548290811061054d5761054d611e1d565b9060005260206000209060030201600101548261056a9190611e49565b91508061057681611e62565b9150506104bd565b50801561069a57600654600580546001600160a01b039092169163a9059cbb9190859081106105af576105af611e1d565b60009182526020909120015460405160e083901b6001600160e01b03191681526001600160a01b039091166004820152602481018490526044016020604051808303816000875af1158015610608573d6000803e3d6000fd5b505050506040513d601f19601f8201168201806040525081019061062c9190611e7b565b506005828154811061064057610640611e1d565b60009182526020918290200154600654604080518581526001600160a01b039283169481019490945291169130917f752946f0e17aedfdcd872285e74dc76bc647edb1d3f46e0e397910b6f580b174910160405180910390a35b50806106a581611e62565b9150506104af565b50565b6001546001600160a01b03163314806106e157506106cc610ec2565b6001600160a01b0316336001600160a01b0316145b6106fd5760405162461bcd60e51b815260040161042f90611cc4565b6001600160a01b038216600090815260026020526040902061071f8282611d5d565b505050565b600080805b60055481101561080a5760005b600460006005848154811061074d5761074d611e1d565b60009182526020808320909101546001600160a01b031683528201929092526040019020548110156107f757600460006005848154811061079057610790611e1d565b60009182526020808320909101546001600160a01b0316835282019290925260400190208054829081106107c6576107c6611e1d565b906000526020600020906003020160010154836107e39190611e49565b9250806107ef81611e62565b915050610736565b508061080281611e62565b915050610729565b50919050565b6001546001600160a01b0316331461083a5760405162461bcd60e51b815260040161042f90611e9d565b600580546001810182556000919091527f036b6384b5eca791c62761152d0c79bb0604c104a5fb6f4eb0703f3154bb3db00180546001600160a01b0319166001600160a01b03831617905550565b7ff0c57e16840df040f15088dc2f81fe391c3923bec73e23a9662efc9c229c6a008054600160401b810460ff16159067ffffffffffffffff166000811580156108ce5750825b905060008267ffffffffffffffff1660011480156108eb5750303b155b9050811580156108f9575080155b156109175760405163f92ee8a960e01b815260040160405180910390fd5b845467ffffffffffffffff19166001178555831561094157845460ff60401b1916600160401b1785555b61094a8761175e565b600180546001600160a01b03808a166001600160a01b031992831617909255600680549289169290911691909117905583156109c057845460ff60401b19168555604051600181527fc7f505b2f371ae2175ee4913f4499e1f2633a7b5936321eed1cdaeb6115181d29060200160405180910390a15b50505050505050565b6001546001600160a01b03163314806109fa57506109e5610ec2565b6001600160a01b0316336001600160a01b0316145b610a165760405162461bcd60e51b815260040161042f90611cc4565b600180546001600160a01b0319166001600160a01b0392909216919091179055565b610a4061176f565b610a4a60006117a1565b565b600080610a57610724565b6006546040516370a0823160e01b815230600482015291925082916001600160a01b03909116906370a0823190602401602060405180830381865afa158015610aa4573d6000803e3d6000fd5b505050506040513d601f19601f82011682018060405250810190610ac89190611edf565b101591505090565b6002602052600090815260409020805461036190611c90565b60606000805b600554811015610b53576004600060058381548110610b1057610b10611e1d565b60009182526020808320909101546001600160a01b03168352820192909252604001902054610b3f9083611e49565b915080610b4b81611e62565b915050610aef565b5060008167ffffffffffffffff811115610b6f57610b6f611911565b604051908082528060200260200182016040528015610bbc57816020015b60408051606080820183526000808352602083015291810191909152815260200190600190039081610b8d5790505b5090506000805b600554811015610d955760005b6004600060058481548110610be757610be7611e1d565b60009182526020808320909101546001600160a01b03168352820192909252604001902054811015610d82576004600060058481548110610c2a57610c2a611e1d565b60009182526020808320909101546001600160a01b031683528201929092526040019020805482908110610c6057610c60611e1d565b90600052602060002090600302016040518060600160405290816000820160009054906101000a90046001600160a01b03166001600160a01b03166001600160a01b0316815260200160018201548152602001600282018054610cc290611c90565b80601f0160208091040260200160405190810160405280929190818152602001828054610cee90611c90565b8015610d3b5780601f10610d1057610100808354040283529160200191610d3b565b820191906000526020600020905b815481529060010190602001808311610d1e57829003601f168201915b505050505081525050848481518110610d5657610d56611e1d565b60200260200101819052508280610d6c90611e62565b9350508080610d7a90611e62565b915050610bd0565b5080610d8d81611e62565b915050610bc3565b50909392505050565b610da733611237565b610dff5760405162461bcd60e51b815260206004820152602360248201527f4f6e6c792067726f7570206d656d626572732063616e2061646420657870656e60448201526273657360e81b606482015260840161042f565b33600090815260046020908152604080832081516060810183526001600160a01b03888116825281850188815293820187815283546001808201865594885295909620825160039096020180546001600160a01b0319169590911694909417845591519083015591516002820190610e779082611d5d565b505050336001600160a01b03167fdbd9a3f53a18eb0dd00bb11deccddfd31a7b58f31384b57eeceecb0efd062fc28383604051610eb5929190611ef8565b60405180910390a2505050565b7f9016d09d72d40fdae2fd8ceac6b6234c7706214fd39c1cd1e609a0528c199300546001600160a01b031690565b600554606090819060008167ffffffffffffffff811115610f1357610f13611911565b604051908082528060200260200182016040528015610f3c578160200160208202803683370190505b50905060008267ffffffffffffffff811115610f5a57610f5a611911565b604051908082528060200260200182016040528015610f83578160200160208202803683370190505b50905060005b838110156110eb5760058181548110610fa457610fa4611e1d565b9060005260206000200160009054906101000a90046001600160a01b0316838281518110610fd457610fd4611e1d565b60200260200101906001600160a01b031690816001600160a01b0316815250506000805b600460006005858154811061100f5761100f611e1d565b60009182526020808320909101546001600160a01b031683528201929092526040019020548110156110b957600460006005858154811061105257611052611e1d565b60009182526020808320909101546001600160a01b03168352820192909252604001902080548290811061108857611088611e1d565b906000526020600020906003020160010154826110a59190611e49565b9150806110b181611e62565b915050610ff8565b50808383815181106110cd576110cd611e1d565b602090810291909101015250806110e381611e62565b915050610f89565b509094909350915050565b6001546001600160a01b031633146111205760405162461bcd60e51b815260040161042f90611e9d565b6000805b60055482101561117f57826001600160a01b03166005838154811061114b5761114b611e1d565b6000918252602090912001546001600160a01b03160361116d5750600161117f565b8161117781611e62565b925050611124565b801561071f576005805461119590600190611f11565b815481106111a5576111a5611e1d565b600091825260209091200154600580546001600160a01b0390921691849081106111d1576111d1611e1d565b9060005260206000200160006101000a8154816001600160a01b0302191690836001600160a01b03160217905550600580548061121057611210611f24565b600082815260209020810160001990810180546001600160a01b0319169055019055505050565b6000805b60055481101561129757826001600160a01b03166005828154811061126257611262611e1d565b6000918252602090912001546001600160a01b0316036112855750600192915050565b8061128f81611e62565b91505061123b565b50600092915050565b606060058054806020026020016040519081016040528092919081815260200182805480156112f857602002820191906000526020600020905b81546001600160a01b031681526001909101906020018083116112da575b5050505050905090565b6001546001600160a01b0316331461132c5760405162461bcd60e51b815260040161042f90611e9d565b6001600160a01b038216600090815260046020526040902054811061138b5760405162461bcd60e51b8152602060048201526015602482015274092dcecc2d8d2c840caf0e0cadce6ca40d2dcc8caf605b1b604482015260640161042f565b6001600160a01b03821660009081526004602052604081208054839081106113b5576113b5611e1d565b90600052602060002090600302016040518060600160405290816000820160009054906101000a90046001600160a01b03166001600160a01b03166001600160a01b031681526020016001820154815260200160028201805461141790611c90565b80601f016020809104026020016040519081016040528092919081815260200182805461144390611c90565b80156114905780601f1061146557610100808354040283529160200191611490565b820191906000526020600020905b81548152906001019060200180831161147357829003601f168201915b505050505081525050905060008290505b6001600160a01b0384166000908152600460205260409020546114c690600190611f11565b8110156115a6576001600160a01b03841660009081526004602052604090206114f0826001611e49565b8154811061150057611500611e1d565b906000526020600020906003020160046000866001600160a01b03166001600160a01b03168152602001908152602001600020828154811061154457611544611e1d565b60009182526020909120825460039092020180546001600160a01b0319166001600160a01b039092169190911781556001808301549082015560028082019061158f90840182611f3a565b50905050808061159e90611e62565b9150506114a1565b506001600160a01b03831660009081526004602052604090208054806115ce576115ce611f24565b60008281526020812060036000199093019283020180546001600160a01b031916815560018101829055906116066002830182611863565b50509055826001600160a01b03167febd2d8d0842ef9a4cf8604863a944fc43b797aa2025cb22a26c31f1ce0d1044282602001518360400151604051610eb5929190611ef8565b61165561176f565b6001600160a01b03811661167f57604051631e4fbdf760e01b81526000600482015260240161042f565b6106ad816117a1565b600460205281600052604060002081815481106116a457600080fd5b60009182526020909120600390910201805460018201546002830180546001600160a01b039093169550909350906116db90611c90565b80601f016020809104026020016040519081016040528092919081815260200182805461170790611c90565b80156117545780601f1061172957610100808354040283529160200191611754565b820191906000526020600020905b81548152906001019060200180831161173757829003601f168201915b5050505050905083565b611766611812565b6106ad8161185b565b33611778610ec2565b6001600160a01b031614610a4a5760405163118cdaa760e01b815233600482015260240161042f565b7f9016d09d72d40fdae2fd8ceac6b6234c7706214fd39c1cd1e609a0528c19930080546001600160a01b031981166001600160a01b03848116918217845560405192169182907f8be0079c531659141344cd1fd0a4f28419497f9722a3daafe3b4186f6b6457e090600090a3505050565b7ff0c57e16840df040f15088dc2f81fe391c3923bec73e23a9662efc9c229c6a0054600160401b900460ff16610a4a57604051631afcd79f60e31b815260040160405180910390fd5b611655611812565b50805461186f90611c90565b6000825580601f1061187f575050565b601f0160209004906000526020600020908101906106ad91905b808211156118ad5760008155600101611899565b5090565b6000815180845260005b818110156118d7576020818501810151868301820152016118bb565b506000602082860101526020601f19601f83011685010191505092915050565b60208152600061190a60208301846118b1565b9392505050565b634e487b7160e01b600052604160045260246000fd5b600082601f83011261193857600080fd5b813567ffffffffffffffff8082111561195357611953611911565b604051601f8301601f19908116603f0116810190828211818310171561197b5761197b611911565b8160405283815286602085880101111561199457600080fd5b836020870160208301376000602085830101528094505050505092915050565b6000602082840312156119c657600080fd5b813567ffffffffffffffff8111156119dd57600080fd5b6119e984828501611927565b949350505050565b80356001600160a01b0381168114611a0857600080fd5b919050565b600060208284031215611a1f57600080fd5b61190a826119f1565b60008060408385031215611a3b57600080fd5b611a44836119f1565b9150602083013567ffffffffffffffff811115611a6057600080fd5b611a6c85828601611927565b9150509250929050565b60008060408385031215611a8957600080fd5b611a92836119f1565b9150611aa0602084016119f1565b90509250929050565b60006020808301818452808551808352604092508286019150828160051b87010184880160005b83811015611b2357888303603f19018552815180516001600160a01b0316845287810151888501528601516060878501819052611b0f818601836118b1565b968901969450505090860190600101611ad0565b509098975050505050505050565b600080600060608486031215611b4657600080fd5b611b4f846119f1565b925060208401359150604084013567ffffffffffffffff811115611b7257600080fd5b611b7e86828701611927565b9150509250925092565b600081518084526020808501945080840160005b83811015611bc15781516001600160a01b031687529582019590820190600101611b9c565b509495945050505050565b604081526000611bdf6040830185611b88565b82810360208481019190915284518083528582019282019060005b81811015611c1657845183529383019391830191600101611bfa565b5090979650505050505050565b60208152600061190a6020830184611b88565b60008060408385031215611c4957600080fd5b611c52836119f1565b946020939093013593505050565b60018060a01b0384168152826020820152606060408201526000611c8760608301846118b1565b95945050505050565b600181811c90821680611ca457607f821691505b60208210810361080a57634e487b7160e01b600052602260045260246000fd5b6020808252602b908201527f4f6e6c792061646d696e206f72206f776e65722063616e20706572666f726d2060408201526a3a3434b99030b1ba34b7b760a91b606082015260800190565b601f82111561071f57600081815260208120601f850160051c81016020861015611d365750805b601f850160051c820191505b81811015611d5557828155600101611d42565b505050505050565b815167ffffffffffffffff811115611d7757611d77611911565b611d8b81611d858454611c90565b84611d0f565b602080601f831160018114611dc05760008415611da85750858301515b600019600386901b1c1916600185901b178555611d55565b600085815260208120601f198616915b82811015611def57888601518255948401946001909101908401611dd0565b5085821015611e0d5787850151600019600388901b60f8161c191681555b5050505050600190811b01905550565b634e487b7160e01b600052603260045260246000fd5b634e487b7160e01b600052601160045260246000fd5b80820180821115611e5c57611e5c611e33565b92915050565b600060018201611e7457611e74611e33565b5060010190565b600060208284031215611e8d57600080fd5b8151801515811461190a57600080fd5b60208082526022908201527f4f6e6c792061646d696e2063616e20706572666f726d2074686973206163746960408201526137b760f11b606082015260800190565b600060208284031215611ef157600080fd5b5051919050565b8281526040602082015260006119e960408301846118b1565b81810381811115611e5c57611e5c611e33565b634e487b7160e01b600052603160045260246000fd5b818103611f45575050565b611f4f8254611c90565b67ffffffffffffffff811115611f6757611f67611911565b611f7581611d858454611c90565b6000601f821160018114611fa95760008315611f915750848201545b600019600385901b1c1916600184901b17845561200e565b600085815260209020601f19841690600086815260209020845b83811015611fe35782860154825560019586019590910190602001611fc3565b50858310156120015781850154600019600388901b60f8161c191681555b50505060018360011b0184555b505050505056fea264697066735822122032258e09e328f6b8aef76d0217f56593f78801f1036e8da9b785cc1d5fde2e2464736f6c63430008140033",
    "linkReferences": {},
    "deployedLinkReferences": {}
}