{
    "abi": [
        {
            "type": "constructor",
            "inputs": [],
            "stateMutability": "nonpayable"
        },
        {
            "type": "function",
            "name": "UPGRADE_INTERFACE_VERSION",
            "inputs": [],
            "outputs": [
                {
                    "name": "",
                    "type": "string",
                    "internalType": "string"
                }
            ],
            "stateMutability": "view"
        },
        {
            "type": "function",
            "name": "accountImplementation",
            "inputs": [],
            "outputs": [
                {
                    "name": "",
                    "type": "address",
                    "internalType": "contract SessionAccount"
                }
            ],
            "stateMutability": "view"
        },
        {
            "type": "function",
            "name": "createAccount",
            "inputs": [
                {
                    "name": "provider",
                    "type": "address",
                    "internalType": "address"
                },
                {
                    "name": "salt",
                    "type": "bytes32",
                    "internalType": "bytes32"
                }
            ],
            "outputs": [
                {
                    "name": "ret",
                    "type": "address",
                    "internalType": "contract SessionAccount"
                }
            ],
            "stateMutability": "nonpayable"
        },
        {
            "type": "function",
            "name": "getAccountHash",
            "inputs": [
                {
                    "name": "provider",
                    "type": "address",
                    "internalType": "address"
                },
                {
                    "name": "salt",
                    "type": "bytes32",
                    "internalType": "bytes32"
                }
            ],
            "outputs": [
                {
                    "name": "",
                    "type": "bytes32",
                    "internalType": "bytes32"
                }
            ],
            "stateMutability": "pure"
        },
        {
            "type": "function",
            "name": "getAccountSalt",
            "inputs": [
                {
                    "name": "otherFactory",
                    "type": "string",
                    "internalType": "string"
                }
            ],
            "outputs": [
                {
                    "name": "",
                    "type": "bytes32",
                    "internalType": "bytes32"
                }
            ],
            "stateMutability": "pure"
        },
        {
            "type": "function",
            "name": "getAddress",
            "inputs": [
                {
                    "name": "provider",
                    "type": "address",
                    "internalType": "address"
                },
                {
                    "name": "salt",
                    "type": "bytes32",
                    "internalType": "bytes32"
                }
            ],
            "outputs": [
                {
                    "name": "",
                    "type": "address",
                    "internalType": "address"
                }
            ],
            "stateMutability": "view"
        },
        {
            "type": "function",
            "name": "initialize",
            "inputs": [
                {
                    "name": "_entryPoint",
                    "type": "address",
                    "internalType": "contract IEntryPoint"
                },
                {
                    "name": "_tokenEntryPoint",
                    "type": "address",
                    "internalType": "contract ITokenEntryPoint"
                },
                {
                    "name": "anOwner",
                    "type": "address",
                    "internalType": "address"
                },
                {
                    "name": "_sessionDuration",
                    "type": "uint48",
                    "internalType": "uint48"
                }
            ],
            "outputs": [],
            "stateMutability": "nonpayable"
        },
        {
            "type": "function",
            "name": "owner",
            "inputs": [],
            "outputs": [
                {
                    "name": "",
                    "type": "address",
                    "internalType": "address"
                }
            ],
            "stateMutability": "view"
        },
        {
            "type": "function",
            "name": "proxiableUUID",
            "inputs": [],
            "outputs": [
                {
                    "name": "",
                    "type": "bytes32",
                    "internalType": "bytes32"
                }
            ],
            "stateMutability": "view"
        },
        {
            "type": "function",
            "name": "renounceOwnership",
            "inputs": [],
            "outputs": [],
            "stateMutability": "nonpayable"
        },
        {
            "type": "function",
            "name": "sessionDuration",
            "inputs": [],
            "outputs": [
                {
                    "name": "",
                    "type": "uint48",
                    "internalType": "uint48"
                }
            ],
            "stateMutability": "view"
        },
        {
            "type": "function",
            "name": "startSession",
            "inputs": [
                {
                    "name": "provider",
                    "type": "address",
                    "internalType": "address"
                },
                {
                    "name": "salt",
                    "type": "bytes32",
                    "internalType": "bytes32"
                },
                {
                    "name": "sessionAddress",
                    "type": "address",
                    "internalType": "address"
                },
                {
                    "name": "providerSignature",
                    "type": "bytes",
                    "internalType": "bytes"
                },
                {
                    "name": "signature",
                    "type": "bytes",
                    "internalType": "bytes"
                }
            ],
            "outputs": [],
            "stateMutability": "nonpayable"
        },
        {
            "type": "function",
            "name": "transferOwnership",
            "inputs": [
                {
                    "name": "newOwner",
                    "type": "address",
                    "internalType": "address"
                }
            ],
            "outputs": [],
            "stateMutability": "nonpayable"
        },
        {
            "type": "function",
            "name": "upgradeToAndCall",
            "inputs": [
                {
                    "name": "newImplementation",
                    "type": "address",
                    "internalType": "address"
                },
                {
                    "name": "data",
                    "type": "bytes",
                    "internalType": "bytes"
                }
            ],
            "outputs": [],
            "stateMutability": "payable"
        },
        {
            "type": "event",
            "name": "AccountCreated",
            "inputs": [
                {
                    "name": "account",
                    "type": "address",
                    "indexed": true,
                    "internalType": "address"
                }
            ],
            "anonymous": false
        },
        {
            "type": "event",
            "name": "Initialized",
            "inputs": [
                {
                    "name": "version",
                    "type": "uint64",
                    "indexed": false,
                    "internalType": "uint64"
                }
            ],
            "anonymous": false
        },
        {
            "type": "event",
            "name": "OwnershipTransferred",
            "inputs": [
                {
                    "name": "previousOwner",
                    "type": "address",
                    "indexed": true,
                    "internalType": "address"
                },
                {
                    "name": "newOwner",
                    "type": "address",
                    "indexed": true,
                    "internalType": "address"
                }
            ],
            "anonymous": false
        },
        {
            "type": "event",
            "name": "Upgraded",
            "inputs": [
                {
                    "name": "implementation",
                    "type": "address",
                    "indexed": true,
                    "internalType": "address"
                }
            ],
            "anonymous": false
        },
        {
            "type": "error",
            "name": "AddressEmptyCode",
            "inputs": [
                {
                    "name": "target",
                    "type": "address",
                    "internalType": "address"
                }
            ]
        },
        {
            "type": "error",
            "name": "ERC1967InvalidImplementation",
            "inputs": [
                {
                    "name": "implementation",
                    "type": "address",
                    "internalType": "address"
                }
            ]
        },
        {
            "type": "error",
            "name": "ERC1967NonPayable",
            "inputs": []
        },
        {
            "type": "error",
            "name": "FailedInnerCall",
            "inputs": []
        },
        {
            "type": "error",
            "name": "InvalidInitialization",
            "inputs": []
        },
        {
            "type": "error",
            "name": "InvalidSignature",
            "inputs": []
        },
        {
            "type": "error",
            "name": "NotInitializing",
            "inputs": []
        },
        {
            "type": "error",
            "name": "OwnableInvalidOwner",
            "inputs": [
                {
                    "name": "owner",
                    "type": "address",
                    "internalType": "address"
                }
            ]
        },
        {
            "type": "error",
            "name": "OwnableUnauthorizedAccount",
            "inputs": [
                {
                    "name": "account",
                    "type": "address",
                    "internalType": "address"
                }
            ]
        },
        {
            "type": "error",
            "name": "UUPSUnauthorizedCallContext",
            "inputs": []
        },
        {
            "type": "error",
            "name": "UUPSUnsupportedProxiableUUID",
            "inputs": [
                {
                    "name": "slot",
                    "type": "bytes32",
                    "internalType": "bytes32"
                }
            ]
        }
    ],
    "bytecode": {
        "object": "0x60a06040523060805234801561001457600080fd5b5061001d610022565b6100d4565b7ff0c57e16840df040f15088dc2f81fe391c3923bec73e23a9662efc9c229c6a00805468010000000000000000900460ff16156100725760405163f92ee8a960e01b815260040160405180910390fd5b80546001600160401b03908116146100d15780546001600160401b0319166001600160401b0390811782556040519081527fc7f505b2f371ae2175ee4913f4499e1f2633a7b5936321eed1cdaeb6115181d29060200160405180910390a15b50565b608051613f256100fd60003960008181610b9001528181610bba0152610d0f0152613f256000f3fe608060405260043610620000ef5760003560e01c80637ac4ed641162000089578063e7e547481162000060578063e7e5474814620002a0578063ece35d0114620002c5578063f14ddffc1462000305578063f2fde38b146200032a57600080fd5b80637ac4ed6414620001fa5780638da5cb5b146200021f578063ad3cb1cc146200025e57600080fd5b806352ce002811620000ca57806352ce0028146200017157806352d1902d14620001a5578063715018a614620001bd5780637766508b14620001d557600080fd5b80630c7cde3914620000f457806311464fbe146200011b5780634f1ef286146200015a575b600080fd5b3480156200010157600080fd5b50620001196200011336600462001205565b6200034f565b005b3480156200012857600080fd5b506000546200013d906001600160a01b031681565b6040516001600160a01b0390911681526020015b60405180910390f35b620001196200016b366004620012a3565b62000489565b3480156200017e57600080fd5b506200019662000190366004620012f9565b620004ae565b60405190815260200162000151565b348015620001b257600080fd5b5062000196620004f7565b348015620001ca57600080fd5b506200011962000517565b348015620001e257600080fd5b5062000196620001f436600462001328565b6200052f565b3480156200020757600080fd5b506200013d62000219366004620012f9565b62000546565b3480156200022c57600080fd5b507f9016d09d72d40fdae2fd8ceac6b6234c7706214fd39c1cd1e609a0528c199300546001600160a01b03166200013d565b3480156200026b57600080fd5b5062000291604051806040016040528060058152602001640352e302e360dc1b81525081565b604051620001519190620013f3565b348015620002ad57600080fd5b5062000119620002bf36600462001408565b62000620565b348015620002d257600080fd5b50600054620002ed90600160a01b900465ffffffffffff1681565b60405165ffffffffffff909116815260200162000151565b3480156200031257600080fd5b506200013d62000324366004620012f9565b620007bc565b3480156200033757600080fd5b50620001196200034936600462001477565b620008c2565b60006200035d8686620004ae565b905060006200036d82856200090a565b905060006200037d83856200090a565b9050876001600160a01b0316826001600160a01b0316141580620003b35750856001600160a01b0316816001600160a01b031614155b15620003d257604051638baa579f60e01b815260040160405180910390fd5b6000620003e0898962000546565b90506001600160a01b0381163b60008190036200040557620004038a8a620007bc565b505b600054604051634bf8391760e11b81526001600160a01b038a81166004830152600160a01b90920465ffffffffffff16602482015283918216906397f0722e90604401600060405180830381600087803b1580156200046357600080fd5b505af115801562000478573d6000803e3d6000fd5b505050505050505050505050505050565b6200049362000b85565b6200049e8262000c2e565b620004aa828262000c38565b5050565b6040516bffffffffffffffffffffffff19606084901b166020820152603481018290526000906054015b6040516020818303038152906040528051906020012090505b92915050565b60006200050362000d04565b5060008051602062003eb083398151915290565b6200052162000d4e565b6200052d600062000dac565b565b60008282604051602001620004d892919062001497565b600080620005558484620004ae565b90506200061881604051806020016200056e9062001128565b601f1982820381018352601f9091011660408190526000546001600160a01b038981166024840152306044840152169060640160408051601f19818403018152918152602080830180516001600160e01b031663485cc95560e01b1790529051620005dc93929101620014a7565b60408051601f1981840301815290829052620005fc9291602001620014cd565b6040516020818303038152906040528051906020012062000e1d565b949350505050565b7ff0c57e16840df040f15088dc2f81fe391c3923bec73e23a9662efc9c229c6a008054600160401b810460ff16159067ffffffffffffffff16600081158015620006675750825b905060008267ffffffffffffffff166001148015620006855750303b155b90508115801562000694575080155b15620006b35760405163f92ee8a960e01b815260040160405180910390fd5b845467ffffffffffffffff191660011785558315620006de57845460ff60401b1916600160401b1785555b620006e98762000e33565b620006f362000e48565b8888604051620007039062001136565b6001600160a01b03928316815291166020820152604001604051809103906000f08015801562000737573d6000803e3d6000fd5b50600080546001600160a01b03929092166001600160d01b031990921691909117600160a01b65ffffffffffff8916021790558315620007b157845460ff60401b19168555604051600181527fc7f505b2f371ae2175ee4913f4499e1f2633a7b5936321eed1cdaeb6115181d29060200160405180910390a15b505050505050505050565b600080620007cb848462000546565b6040519091506001600160a01b038216907f805996f252884581e2f74cf3d2b03564d5ec26ccc90850ae12653dc1b72d1fa290600090a26001600160a01b0381163b80156200081d57509050620004f1565b60006200082b8686620004ae565b6000546040516001600160a01b03898116602483015230604483015292935083929091169060640160408051601f198184030181529181526020820180516001600160e01b031663485cc95560e01b17905251620008899062001128565b62000896929190620014a7565b8190604051809103906000f5905080158015620008b7573d6000803e3d6000fd5b509695505050505050565b620008cc62000d4e565b6001600160a01b038116620008fc57604051631e4fbdf760e01b8152600060048201526024015b60405180910390fd5b620009078162000dac565b50565b60008151604114620009745760405162461bcd60e51b815260206004820152603a602482015260008051602062003ed083398151915260448201527f3a20696e76616c6964207369676e6174757265206c656e6774680000000000006064820152608401620008f3565b6000826040815181106200098c576200098c62001500565b016020015160f81c90506000620009a4848262000e52565b90506000620009b585602062000e52565b90507f7fffffffffffffffffffffffffffffff5d576e7357a4501ddfe92f46681b20a081111562000a3e5760405162461bcd60e51b815260206004820152603d602482015260008051602062003ed083398151915260448201527f3a20696e76616c6964207369676e6174757265202773272076616c75650000006064820152608401620008f3565b8260ff16601b1415801562000a5757508260ff16601c14155b1562000abb5760405162461bcd60e51b815260206004820152603d602482015260008051602062003ed083398151915260448201527f3a20696e76616c6964207369676e6174757265202776272076616c75650000006064820152608401620008f3565b60408051600081526020810180835288905260ff851691810191909152606081018390526080810182905260019060a0016020604051602081039080840390855afa15801562000b0f573d6000803e3d6000fd5b5050604051601f1901519450506001600160a01b03841662000b7c5760405162461bcd60e51b8152602060048201526030602482015260008051602062003ed083398151915260448201526f1d1024a72b20a624a22fa9a4a3a722a960811b6064820152608401620008f3565b50505092915050565b306001600160a01b037f000000000000000000000000000000000000000000000000000000000000000016148062000c0f57507f00000000000000000000000000000000000000000000000000000000000000006001600160a01b031662000c0360008051602062003eb0833981519152546001600160a01b031690565b6001600160a01b031614155b156200052d5760405163703e46dd60e11b815260040160405180910390fd5b6200090762000d4e565b816001600160a01b03166352d1902d6040518163ffffffff1660e01b8152600401602060405180830381865afa92505050801562000c95575060408051601f3d908101601f1916820190925262000c929181019062001516565b60015b62000cbf57604051634c9c8ce360e01b81526001600160a01b0383166004820152602401620008f3565b60008051602062003eb0833981519152811462000cf357604051632a87526960e21b815260048101829052602401620008f3565b62000cff838362000ebc565b505050565b306001600160a01b037f000000000000000000000000000000000000000000000000000000000000000016146200052d5760405163703e46dd60e11b815260040160405180910390fd5b3362000d817f9016d09d72d40fdae2fd8ceac6b6234c7706214fd39c1cd1e609a0528c199300546001600160a01b031690565b6001600160a01b0316146200052d5760405163118cdaa760e01b8152336004820152602401620008f3565b7f9016d09d72d40fdae2fd8ceac6b6234c7706214fd39c1cd1e609a0528c19930080546001600160a01b031981166001600160a01b03848116918217845560405192169182907f8be0079c531659141344cd1fd0a4f28419497f9722a3daafe3b4186f6b6457e090600090a3505050565b600062000e2c83833062000f19565b9392505050565b62000e3d62000f43565b620009078162000f8d565b6200052d62000f43565b600062000e6182602062001530565b8351101562000eb35760405162461bcd60e51b815260206004820181905260248201527f72656164427974657333323a20696e76616c69642064617461206c656e6774686044820152606401620008f3565b50016020015190565b62000ec78262000f97565b6040516001600160a01b038316907fbc7cd75a20ee27fd9adebab32041f755214dbc6bffa90cc0225b39da2e5c2d3b90600090a280511562000f0f5762000cff828262000fff565b620004aa6200107b565b6000604051836040820152846020820152828152600b8101905060ff815360559020949350505050565b7ff0c57e16840df040f15088dc2f81fe391c3923bec73e23a9662efc9c229c6a0054600160401b900460ff166200052d57604051631afcd79f60e31b815260040160405180910390fd5b620008cc62000f43565b806001600160a01b03163b60000362000fcf57604051634c9c8ce360e01b81526001600160a01b0382166004820152602401620008f3565b60008051602062003eb083398151915280546001600160a01b0319166001600160a01b0392909216919091179055565b6060600080846001600160a01b0316846040516200101e919062001552565b600060405180830381855af49150503d80600081146200105b576040519150601f19603f3d011682016040523d82523d6000602084013e62001060565b606091505b5091509150620010728583836200109b565b95945050505050565b34156200052d5760405163b398979f60e01b815260040160405180910390fd5b606082620010b457620010ae82620010fe565b62000e2c565b8151158015620010cc57506001600160a01b0384163b155b15620010f757604051639996b31560e01b81526001600160a01b0385166004820152602401620008f3565b5092915050565b8051156200110f5780518082602001fd5b604051630a12f52160e11b815260040160405180910390fd5b61040a806200157183390190565b612535806200197b83390190565b6001600160a01b03811681146200090757600080fd5b634e487b7160e01b600052604160045260246000fd5b600082601f8301126200118257600080fd5b813567ffffffffffffffff80821115620011a057620011a06200115a565b604051601f8301601f19908116603f01168101908282118183101715620011cb57620011cb6200115a565b81604052838152866020858801011115620011e557600080fd5b836020870160208301376000602085830101528094505050505092915050565b600080600080600060a086880312156200121e57600080fd5b85356200122b8162001144565b9450602086013593506040860135620012448162001144565b9250606086013567ffffffffffffffff808211156200126257600080fd5b6200127089838a0162001170565b935060808801359150808211156200128757600080fd5b50620012968882890162001170565b9150509295509295909350565b60008060408385031215620012b757600080fd5b8235620012c48162001144565b9150602083013567ffffffffffffffff811115620012e157600080fd5b620012ef8582860162001170565b9150509250929050565b600080604083850312156200130d57600080fd5b82356200131a8162001144565b946020939093013593505050565b600080602083850312156200133c57600080fd5b823567ffffffffffffffff808211156200135557600080fd5b818501915085601f8301126200136a57600080fd5b8135818111156200137a57600080fd5b8660208285010111156200138d57600080fd5b60209290920196919550909350505050565b60005b83811015620013bc578181015183820152602001620013a2565b50506000910152565b60008151808452620013df8160208601602086016200139f565b601f01601f19169290920160200192915050565b60208152600062000e2c6020830184620013c5565b600080600080608085870312156200141f57600080fd5b84356200142c8162001144565b935060208501356200143e8162001144565b92506040850135620014508162001144565b9150606085013565ffffffffffff811681146200146c57600080fd5b939692955090935050565b6000602082840312156200148a57600080fd5b813562000e2c8162001144565b8183823760009101908152919050565b6001600160a01b03831681526040602082018190526000906200061890830184620013c5565b60008351620014e18184602088016200139f565b835190830190620014f78183602088016200139f565b01949350505050565b634e487b7160e01b600052603260045260246000fd5b6000602082840312156200152957600080fd5b5051919050565b80820180821115620004f157634e487b7160e01b600052601160045260246000fd5b60008251620015668184602087016200139f565b919091019291505056fe608060405260405161040a38038061040a83398101604081905261002291610268565b61002c8282610033565b5050610352565b61003c82610092565b6040516001600160a01b038316907fbc7cd75a20ee27fd9adebab32041f755214dbc6bffa90cc0225b39da2e5c2d3b90600090a280511561008657610081828261010e565b505050565b61008e610185565b5050565b806001600160a01b03163b6000036100cd57604051634c9c8ce360e01b81526001600160a01b03821660048201526024015b60405180910390fd5b7f360894a13ba1a3210667c828492db98dca3e2076cc3735a920a3ca505d382bbc80546001600160a01b0319166001600160a01b0392909216919091179055565b6060600080846001600160a01b03168460405161012b9190610336565b600060405180830381855af49150503d8060008114610166576040519150601f19603f3d011682016040523d82523d6000602084013e61016b565b606091505b50909250905061017c8583836101a6565b95945050505050565b34156101a45760405163b398979f60e01b815260040160405180910390fd5b565b6060826101bb576101b682610205565b6101fe565b81511580156101d257506001600160a01b0384163b155b156101fb57604051639996b31560e01b81526001600160a01b03851660048201526024016100c4565b50805b9392505050565b8051156102155780518082602001fd5b604051630a12f52160e11b815260040160405180910390fd5b634e487b7160e01b600052604160045260246000fd5b60005b8381101561025f578181015183820152602001610247565b50506000910152565b6000806040838503121561027b57600080fd5b82516001600160a01b038116811461029257600080fd5b60208401519092506001600160401b03808211156102af57600080fd5b818501915085601f8301126102c357600080fd5b8151818111156102d5576102d561022e565b604051601f8201601f19908116603f011681019083821181831017156102fd576102fd61022e565b8160405282815288602084870101111561031657600080fd5b610327836020830160208801610244565b80955050505050509250929050565b60008251610348818460208701610244565b9190910192915050565b60aa806103606000396000f3fe6080604052600a600c565b005b60186014601a565b6051565b565b6000604c7f360894a13ba1a3210667c828492db98dca3e2076cc3735a920a3ca505d382bbc546001600160a01b031690565b905090565b3660008037600080366000845af43d6000803e808015606f573d6000f35b3d6000fdfea2646970667358221220bbe1e4514bdae9c3b151b18fbcb94ac81bdb38a0d79f7a33ec76fae8cec90b7464736f6c6343000814003360e0604052306080523480156200001557600080fd5b506040516200253538038062002535833981016040819052620000389162000127565b6001600160a01b0380831660a052811660c052620000556200005d565b505062000166565b7ff0c57e16840df040f15088dc2f81fe391c3923bec73e23a9662efc9c229c6a00805468010000000000000000900460ff1615620000ae5760405163f92ee8a960e01b815260040160405180910390fd5b80546001600160401b03908116146200010e5780546001600160401b0319166001600160401b0390811782556040519081527fc7f505b2f371ae2175ee4913f4499e1f2633a7b5936321eed1cdaeb6115181d29060200160405180910390a15b50565b6001600160a01b03811681146200010e57600080fd5b600080604083850312156200013b57600080fd5b8251620001488162000111565b60208401519092506200015b8162000111565b809150509250929050565b60805160a05160c05161234b620001ea60003960008181610468015281816105c801526110ea015260008181610415015281816109d501528181610a5d01528181610c0901528181610ca101528181610d3201528181611095015281816111ef01526113b501526000818161148c015281816114b501526115fb015261234b6000f3fe6080604052600436106101a05760003560e01c80637ce02794116100ec578063bc197c811161008a578063ed90687911610064578063ed906879146104e5578063f23a6e6114610505578063f2fde38b14610532578063fff35b721461055257600080fd5b8063bc197c811461048c578063c399ec88146104bb578063d087d288146104d057600080fd5b8063ad3cb1cc116100c6578063ad3cb1cc146103c8578063b0d691fe14610406578063b61d27f614610439578063bb5032061461045957600080fd5b80637ce027941461035b5780638da5cb5b1461037b57806397f0722e146103a857600080fd5b80633a871cdd116101595780634d44560d116101335780634d44560d146102fe5780634f1ef2861461031e57806352d1902d14610331578063715018a61461034657600080fd5b80633a871cdd146102a8578063485cc955146102d65780634a58db19146102f657600080fd5b806301ffc9a7146101ac5780630b699abe146101e1578063150b7a02146102035780631626ba7e1461024857806318dfb3c7146102685780632d679afe1461028857600080fd5b366101a757005b600080fd5b3480156101b857600080fd5b506101cc6101c7366004611bbf565b610572565b60405190151581526020015b60405180910390f35b3480156101ed57600080fd5b506102016101fc366004611bfe565b6105c4565b005b34801561020f57600080fd5b5061022f61021e366004611c63565b630a85bd0160e11b95945050505050565b6040516001600160e01b031990911681526020016101d8565b34801561025457600080fd5b5061022f610263366004611cd5565b6106c8565b34801561027457600080fd5b50610201610283366004611d64565b61076f565b34801561029457600080fd5b506101cc6102a3366004611bfe565b61086c565b3480156102b457600080fd5b506102c86102c3366004611de8565b610893565b6040519081526020016101d8565b3480156102e257600080fd5b506102016102f1366004611e35565b6108b2565b6102016109d3565b34801561030a57600080fd5b50610201610319366004611e6e565b610a53565b61020161032c366004611eb0565b610adc565b34801561033d57600080fd5b506102c8610af7565b34801561035257600080fd5b50610201610b14565b34801561036757600080fd5b50610201610376366004611bfe565b610b28565b34801561038757600080fd5b50610390610b56565b6040516001600160a01b0390911681526020016101d8565b3480156103b457600080fd5b506102016103c3366004611f73565b610b84565b3480156103d457600080fd5b506103f9604051806040016040528060058152602001640352e302e360dc1b81525081565b6040516101d89190611fd0565b34801561041257600080fd5b507f0000000000000000000000000000000000000000000000000000000000000000610390565b34801561044557600080fd5b50610201610454366004612003565b610bd7565b34801561046557600080fd5b507f0000000000000000000000000000000000000000000000000000000000000000610390565b34801561049857600080fd5b5061022f6104a7366004612052565b63bc197c8160e01b98975050505050505050565b3480156104c757600080fd5b506102c8610be9565b3480156104dc57600080fd5b506102c8610c7a565b3480156104f157600080fd5b50610201610500366004611bfe565b610cd0565b34801561051157600080fd5b5061022f610520366004612110565b63f23a6e6160e01b9695505050505050565b34801561053e57600080fd5b5061020161054d366004611bfe565b610cfa565b34801561055e57600080fd5b506101cc61056d36600461218b565b610d0e565b60006001600160e01b03198216630a85bd0160e11b14806105a357506001600160e01b03198216630271189760e51b145b806105be57506001600160e01b031982166301ffc9a760e01b145b92915050565b60007f00000000000000000000000000000000000000000000000000000000000000009050806001600160a01b0316638da5cb5b6040518163ffffffff1660e01b8152600401602060405180830381865afa158015610627573d6000803e3d6000fd5b505050506040513d601f19601f8201168201806040525081019061064b91906121cf565b6001600160a01b0316336001600160a01b0316146106bb5760405162461bcd60e51b815260206004820152602260248201527f4f776e61626c653a206e6f7420546f6b656e456e747279506f696e74206f776e60448201526132b960f11b60648201526084015b60405180910390fd5b6106c482610dbd565b5050565b60008061070b8585858080601f016020809104026020016040519081016040528093929190818152602001838380828437600092019190915250610e2e92505050565b9050610715610b56565b6001600160a01b0316816001600160a01b03160361073d5750630b135d3f60e11b9050610768565b6107468161086c565b1561075b5750630b135d3f60e11b9050610768565b506001600160e01b031990505b9392505050565b61077761108a565b808381146107bd5760405162461bcd60e51b815260206004820152601360248201527277726f6e67206172726179206c656e6774687360681b60448201526064016106b2565b60005b81811015610864576108528686838181106107dd576107dd6121ec565b90506020020160208101906107f29190611bfe565b6000868685818110610806576108066121ec565b90506020028101906108189190612202565b8080601f01602080910402602001604051908101604052809392919081815260200183838082843760009201919091525061117492505050565b8061085c8161225e565b9150506107c0565b505050505050565b6001600160a01b03166000908152600160205260409020544265ffffffffffff9091161190565b600061089d6111e4565b6108a7848461125c565b905061076882611327565b7ff0c57e16840df040f15088dc2f81fe391c3923bec73e23a9662efc9c229c6a008054600160401b810460ff1615906001600160401b03166000811580156108f75750825b90506000826001600160401b031660011480156109135750303b155b905081158015610921575080155b1561093f5760405163f92ee8a960e01b815260040160405180910390fd5b845467ffffffffffffffff19166001178555831561096957845460ff60401b1916600160401b1785555b61097286611374565b61097a611385565b610984878761138d565b83156109ca57845460ff60401b19168555604051600181527fc7f505b2f371ae2175ee4913f4499e1f2633a7b5936321eed1cdaeb6115181d29060200160405180910390a15b50505050505050565b7f000000000000000000000000000000000000000000000000000000000000000060405163b760faf960e01b81523060048201526001600160a01b03919091169063b760faf99034906024016000604051808303818588803b158015610a3857600080fd5b505af1158015610a4c573d6000803e3d6000fd5b5050505050565b610a5b6113ff565b7f000000000000000000000000000000000000000000000000000000000000000060405163040b850f60e31b81526001600160a01b03848116600483015260248201849052919091169063205c287890604401600060405180830381600087803b158015610ac857600080fd5b505af1158015610864573d6000803e3d6000fd5b610ae4611481565b610aed82611526565b6106c4828261152e565b6000610b016115f0565b506000805160206122d683398151915290565b610b1c611639565b610b266000610dbd565b565b610b306113ff565b6001600160a01b03166000908152600160205260409020805465ffffffffffff19169055565b7f9016d09d72d40fdae2fd8ceac6b6234c7706214fd39c1cd1e609a0528c199300546001600160a01b031690565b610b8c61166b565b610b9e65ffffffffffff821642612277565b6001600160a01b03929092166000908152600160205260409020805465ffffffffffff191665ffffffffffff9093169290921790915550565b610be3848484846116cb565b50505050565b6040516370a0823160e01b81523060048201526000906001600160a01b037f000000000000000000000000000000000000000000000000000000000000000016906370a08231906024015b602060405180830381865afa158015610c51573d6000803e3d6000fd5b505050506040513d601f19601f82011682018060405250810190610c75919061228a565b905090565b604051631aab3f0d60e11b8152306004820152600060248201819052906001600160a01b037f000000000000000000000000000000000000000000000000000000000000000016906335567e1a90604401610c34565b610cd86113ff565b600080546001600160a01b0319166001600160a01b0392909216919091179055565b610d0261166b565b610d0b81610dbd565b50565b600080610d1b848461125c565b1590508015610768576000602085013560401c90507f0000000000000000000000000000000000000000000000000000000000000000604051630bd28e3b60e01b81526001600160c01b03831660048201526001600160a01b039190911690630bd28e3b90602401600060405180830381600087803b158015610d9d57600080fd5b505af1158015610db1573d6000803e3d6000fd5b50505050509392505050565b7f9016d09d72d40fdae2fd8ceac6b6234c7706214fd39c1cd1e609a0528c19930080546001600160a01b031981166001600160a01b03848116918217845560405192169182907f8be0079c531659141344cd1fd0a4f28419497f9722a3daafe3b4186f6b6457e090600090a3505050565b60008151604114610e955760405162461bcd60e51b815260206004820152603a60248201526000805160206122f683398151915260448201527f3a20696e76616c6964207369676e6174757265206c656e67746800000000000060648201526084016106b2565b600082604081518110610eaa57610eaa6121ec565b016020015160f81c90506000610ec08482611714565b90506000610ecf856020611714565b90506fa2a8918ca85bafe22016d0b997e4df60600160ff1b03811115610f4b5760405162461bcd60e51b815260206004820152603d60248201526000805160206122f683398151915260448201527f3a20696e76616c6964207369676e6174757265202773272076616c756500000060648201526084016106b2565b8260ff16601b14158015610f6357508260ff16601c14155b15610fc45760405162461bcd60e51b815260206004820152603d60248201526000805160206122f683398151915260448201527f3a20696e76616c6964207369676e6174757265202776272076616c756500000060648201526084016106b2565b60408051600081526020810180835288905260ff851691810191909152606081018390526080810182905260019060a0016020604051602081039080840390855afa158015611017573d6000803e3d6000fd5b5050604051601f1901519450506001600160a01b0384166110815760405162461bcd60e51b815260206004820152603060248201526000805160206122f683398151915260448201526f1d1024a72b20a624a22fa9a4a3a722a960811b60648201526084016106b2565b50505092915050565b336001600160a01b037f00000000000000000000000000000000000000000000000000000000000000001614806110d957506110c4610b56565b6001600160a01b0316336001600160a01b0316145b8061110c5750336001600160a01b037f000000000000000000000000000000000000000000000000000000000000000016145b610b265760405162461bcd60e51b815260206004820152603360248201527f6163636f756e743a206e6f74204f776e6572206f7220456e747279506f696e74604482015272081bdc88151bdad95b915b9d1c9e541bda5b9d606a1b60648201526084016106b2565b600080846001600160a01b0316848460405161119091906122a3565b60006040518083038185875af1925050503d80600081146111cd576040519150601f19603f3d011682016040523d82523d6000602084013e6111d2565b606091505b509150915081610a4c57805160208201fd5b336001600160a01b037f00000000000000000000000000000000000000000000000000000000000000001614610b265760405162461bcd60e51b815260206004820152601c60248201527f6163636f756e743a206e6f742066726f6d20456e747279506f696e740000000060448201526064016106b2565b7f19457468657265756d205369676e6564204d6573736167653a0a3332000000006000908152601c829052603c812060006112db61129e610140870187612202565b8080601f016020809104026020016040519081016040528093929190818152602001838380828437600092019190915250869392505061177a9050565b9050806001600160a01b03166112ef610b56565b6001600160a01b03161415801561130c575061130a8161086c565b155b1561131c576001925050506105be565b506000949350505050565b8015610d0b57604051600090339060001990849084818181858888f193505050503d8060008114610a4c576040519150601f19603f3d011682016040523d82523d6000602084013e610a4c565b61137c6117a4565b610d0b816117ed565b610b266117a4565b600080546001600160a01b0319166001600160a01b03848116919091178255604051838216927f0000000000000000000000000000000000000000000000000000000000000000909216917f526ffefac8167421b9048ae3377810715d834479565b0182ea4155f0efa4c38091a35050565b33611408610b56565b6001600160a01b0316148061141c57503033145b610b265760405162461bcd60e51b815260206004820152603060248201527f4f776e61626c653a2063616c6c6572206973206e6f7420746865206f776e657260448201526f081bdc881d1a194818dbdb9d1c9858dd60821b60648201526084016106b2565b306001600160a01b037f000000000000000000000000000000000000000000000000000000000000000016148061150857507f00000000000000000000000000000000000000000000000000000000000000006001600160a01b03166114fc6000805160206122d6833981519152546001600160a01b031690565b6001600160a01b031614155b15610b265760405163703e46dd60e11b815260040160405180910390fd5b610d0b6113ff565b816001600160a01b03166352d1902d6040518163ffffffff1660e01b8152600401602060405180830381865afa925050508015611588575060408051601f3d908101601f191682019092526115859181019061228a565b60015b6115b057604051634c9c8ce360e01b81526001600160a01b03831660048201526024016106b2565b6000805160206122d683398151915281146115e157604051632a87526960e21b8152600481018290526024016106b2565b6115eb838361181f565b505050565b306001600160a01b037f00000000000000000000000000000000000000000000000000000000000000001614610b265760405163703e46dd60e11b815260040160405180910390fd5b33611642610b56565b6001600160a01b031614610b265760405163118cdaa760e01b81523360048201526024016106b2565b6000546001600160a01b0316331480159061169f5750611689610b56565b6001600160a01b0316336001600160a01b031614155b80156116ab5750333014155b15610b265760405163e2a5195d60e01b81523360048201526024016106b2565b6116d361108a565b610be3848484848080601f01602080910402602001604051908101604052809392919081815260200183838082843760009201919091525061117492505050565b6000611721826020612277565b835110156117715760405162461bcd60e51b815260206004820181905260248201527f72656164427974657333323a20696e76616c69642064617461206c656e67746860448201526064016106b2565b50016020015190565b60008060008061178a8686611875565b92509250925061179a82826118c2565b5090949350505050565b7ff0c57e16840df040f15088dc2f81fe391c3923bec73e23a9662efc9c229c6a0054600160401b900460ff16610b2657604051631afcd79f60e31b815260040160405180910390fd5b6117f56117a4565b6001600160a01b038116610d0257604051631e4fbdf760e01b8152600060048201526024016106b2565b6118288261197b565b6040516001600160a01b038316907fbc7cd75a20ee27fd9adebab32041f755214dbc6bffa90cc0225b39da2e5c2d3b90600090a280511561186d576115eb82826119e0565b6106c4611a56565b600080600083516041036118af5760208401516040850151606086015160001a6118a188828585611a75565b9550955095505050506118bb565b50508151600091506002905b9250925092565b60008260038111156118d6576118d66122bf565b036118df575050565b60018260038111156118f3576118f36122bf565b036119115760405163f645eedf60e01b815260040160405180910390fd5b6002826003811115611925576119256122bf565b036119465760405163fce698f760e01b8152600481018290526024016106b2565b600382600381111561195a5761195a6122bf565b036106c4576040516335e2f38360e21b8152600481018290526024016106b2565b806001600160a01b03163b6000036119b157604051634c9c8ce360e01b81526001600160a01b03821660048201526024016106b2565b6000805160206122d683398151915280546001600160a01b0319166001600160a01b0392909216919091179055565b6060600080846001600160a01b0316846040516119fd91906122a3565b600060405180830381855af49150503d8060008114611a38576040519150601f19603f3d011682016040523d82523d6000602084013e611a3d565b606091505b5091509150611a4d858383611b3a565b95945050505050565b3415610b265760405163b398979f60e01b815260040160405180910390fd5b600080806fa2a8918ca85bafe22016d0b997e4df60600160ff1b03841115611aa65750600091506003905082611b30565b604080516000808252602082018084528a905260ff891692820192909252606081018790526080810186905260019060a0016020604051602081039080840390855afa158015611afa573d6000803e3d6000fd5b5050604051601f1901519150506001600160a01b038116611b2657506000925060019150829050611b30565b9250600091508190505b9450945094915050565b606082611b4f57611b4a82611b96565b610768565b8151158015611b6657506001600160a01b0384163b155b15611b8f57604051639996b31560e01b81526001600160a01b03851660048201526024016106b2565b5080610768565b805115611ba65780518082602001fd5b604051630a12f52160e11b815260040160405180910390fd5b600060208284031215611bd157600080fd5b81356001600160e01b03198116811461076857600080fd5b6001600160a01b0381168114610d0b57600080fd5b600060208284031215611c1057600080fd5b813561076881611be9565b60008083601f840112611c2d57600080fd5b5081356001600160401b03811115611c4457600080fd5b602083019150836020828501011115611c5c57600080fd5b9250929050565b600080600080600060808688031215611c7b57600080fd5b8535611c8681611be9565b94506020860135611c9681611be9565b93506040860135925060608601356001600160401b03811115611cb857600080fd5b611cc488828901611c1b565b969995985093965092949392505050565b600080600060408486031215611cea57600080fd5b8335925060208401356001600160401b03811115611d0757600080fd5b611d1386828701611c1b565b9497909650939450505050565b60008083601f840112611d3257600080fd5b5081356001600160401b03811115611d4957600080fd5b6020830191508360208260051b8501011115611c5c57600080fd5b60008060008060408587031215611d7a57600080fd5b84356001600160401b0380821115611d9157600080fd5b611d9d88838901611d20565b90965094506020870135915080821115611db657600080fd5b50611dc387828801611d20565b95989497509550505050565b60006101608284031215611de257600080fd5b50919050565b600080600060608486031215611dfd57600080fd5b83356001600160401b03811115611e1357600080fd5b611e1f86828701611dcf565b9660208601359650604090950135949350505050565b60008060408385031215611e4857600080fd5b8235611e5381611be9565b91506020830135611e6381611be9565b809150509250929050565b60008060408385031215611e8157600080fd5b8235611e8c81611be9565b946020939093013593505050565b634e487b7160e01b600052604160045260246000fd5b60008060408385031215611ec357600080fd5b8235611ece81611be9565b915060208301356001600160401b0380821115611eea57600080fd5b818501915085601f830112611efe57600080fd5b813581811115611f1057611f10611e9a565b604051601f8201601f19908116603f01168101908382118183101715611f3857611f38611e9a565b81604052828152886020848701011115611f5157600080fd5b8260208601602083013760006020848301015280955050505050509250929050565b60008060408385031215611f8657600080fd5b8235611f9181611be9565b9150602083013565ffffffffffff81168114611e6357600080fd5b60005b83811015611fc7578181015183820152602001611faf565b50506000910152565b6020815260008251806020840152611fef816040850160208701611fac565b601f01601f19169190910160400192915050565b6000806000806060858703121561201957600080fd5b843561202481611be9565b93506020850135925060408501356001600160401b0381111561204657600080fd5b611dc387828801611c1b565b60008060008060008060008060a0898b03121561206e57600080fd5b883561207981611be9565b9750602089013561208981611be9565b965060408901356001600160401b03808211156120a557600080fd5b6120b18c838d01611d20565b909850965060608b01359150808211156120ca57600080fd5b6120d68c838d01611d20565b909650945060808b01359150808211156120ef57600080fd5b506120fc8b828c01611c1b565b999c989b5096995094979396929594505050565b60008060008060008060a0878903121561212957600080fd5b863561213481611be9565b9550602087013561214481611be9565b9450604087013593506060870135925060808701356001600160401b0381111561216d57600080fd5b61217989828a01611c1b565b979a9699509497509295939492505050565b6000806040838503121561219e57600080fd5b82356001600160401b038111156121b457600080fd5b6121c085828601611dcf565b95602094909401359450505050565b6000602082840312156121e157600080fd5b815161076881611be9565b634e487b7160e01b600052603260045260246000fd5b6000808335601e1984360301811261221957600080fd5b8301803591506001600160401b0382111561223357600080fd5b602001915036819003821315611c5c57600080fd5b634e487b7160e01b600052601160045260246000fd5b60006001820161227057612270612248565b5060010190565b808201808211156105be576105be612248565b60006020828403121561229c57600080fd5b5051919050565b600082516122b5818460208701611fac565b9190910192915050565b634e487b7160e01b600052602160045260246000fdfe360894a13ba1a3210667c828492db98dca3e2076cc3735a920a3ca505d382bbc5369676e617475726556616c696461746f72237265636f7665725369676e6572a26469706673582212200fa7e10f2995f2c20ed51d5cf526e5d7c8b7c5919efbeb5a3a50eb7b6571645f64736f6c63430008140033360894a13ba1a3210667c828492db98dca3e2076cc3735a920a3ca505d382bbc5369676e617475726556616c696461746f72237265636f7665725369676e6572a26469706673582212203811cf50fbf527948075f2f5283447e59e98608d46c534f10de44ffb0cca848864736f6c63430008140033",
        "linkReferences": {}
    },
    "methodIdentifiers": {
        "UPGRADE_INTERFACE_VERSION()": "ad3cb1cc",
        "accountImplementation()": "11464fbe",
        "createAccount(address,bytes32)": "f14ddffc",
        "getAccountHash(address,bytes32)": "52ce0028",
        "getAccountSalt(string)": "7766508b",
        "getAddress(address,bytes32)": "7ac4ed64",
        "initialize(address,address,address,uint48)": "e7e54748",
        "owner()": "8da5cb5b",
        "proxiableUUID()": "52d1902d",
        "renounceOwnership()": "715018a6",
        "sessionDuration()": "ece35d01",
        "startSession(address,bytes32,address,bytes,bytes)": "0c7cde39",
        "transferOwnership(address)": "f2fde38b",
        "upgradeToAndCall(address,bytes)": "4f1ef286"
    },
    "storageLayout": {
        "storage": [
            {
                "astId": 55387,
                "contract": "src/SessionAccountManager.sol:SessionAccountManager",
                "label": "accountImplementation",
                "offset": 0,
                "slot": "0",
                "type": "t_contract(SessionAccount)55358"
            },
            {
                "astId": 55389,
                "contract": "src/SessionAccountManager.sol:SessionAccountManager",
                "label": "sessionDuration",
                "offset": 20,
                "slot": "0",
                "type": "t_uint48"
            }
        ],
        "types": {
            "t_contract(SessionAccount)55358": {
                "encoding": "inplace",
                "label": "contract SessionAccount",
                "numberOfBytes": "20"
            },
            "t_uint48": {
                "encoding": "inplace",
                "label": "uint48",
                "numberOfBytes": "6"
            }
        }
    },
    "id": 73
}